:100000000C9465000C948D000C948D000C948D0064
:100010000C948D000C948D000C948D000C948D002C
:100020000C948D000C948D000C948D000C948D001C
:100030000C948D000C948D000C948D000C948D000C
:100040000C94F0000C948D000C94AB030C94DD0325
:100050000C948D000C948D000C948D000C948D00EC
:100060000C948D000C948D00C400C600C800CA001A
:10007000CC00D200D800E20000000008000201001D
:100080000003040700000000000000000102040853
:1000900010204080010204081020010204081020F2
:1000A000040404040404040402020202020203031E
:1000B0000303030300000000250028002B000000BC
:1000C0000000240027002A000D0411241FBECFEFDA
:1000D000D8E0DEBFCDBF11E0A0E0B1E0ECEBF9E08D
:1000E00002C005900D92AC32B107D9F721E0ACE225
:1000F000B1E001C01D92A23DB207E1F710E0CAECE9
:10010000D0E004C02297FE010E94D804C83CD10769
:10011000C9F70E9451040C94DC040C94000061E0C7
:1001200089E00E94FD0161E085E00E94FD0161E03F
:1001300086E00E94FD0161E070E085E00E947501AB
:1001400026E040E051EE60E070E085E391E00C9441
:100150004F0385E391E00E946C02892B09F43FC0B4
:1001600060E071E085E391E00E94A20485E391E004
:100170000E948502815691098830910550F78C5C68
:100180009F4FFC010C94D60461E007C061E00BC0F6
:1001900061E00FC061E017C060E089E00E943602B4
:1001A00061E00BC060E089E00E94360261E00FC0B0
:1001B00060E089E00E94360260E085E00E9436023D
:1001C00061E009C060E089E00E94360260E085E0FD
:1001D0000E94360260E086E00E943602BACF08959F
:1001E0001F920F920FB60F9211242F933F938F936C
:1001F0009F93AF93BF9380912D0190912E01A09179
:100200002F01B091300130912C0126E0230F2D37C2
:1002100020F40296A11DB11D05C029E8230F039605
:10022000A11DB11D20932C0180932D0190932E01CF
:10023000A0932F01B0933001809131019091320150
:10024000A0913301B09134010196A11DB11D80939D
:10025000310190933201A0933301B0933401BF91E7
:10026000AF919F918F913F912F910F900FBE0F9063
:100270001F901895789484B5826084BD84B58160A0
:1002800084BD85B5826085BD85B5816085BDEEE69E
:10029000F0E0808181608083E1E8F0E0108280817D
:1002A00082608083808181608083E0E8F0E08081EB
:1002B00081608083E1EBF0E0808184608083E0EB0B
:1002C000F0E0808181608083EAE7F0E080818460F3
:1002D000808380818260808380818E7F8083808123
:1002E000806880831092C10008951F93CF93DF939D
:1002F000182FEB0161E00E94FD01209711F460E0EE
:1003000004C0CF3FD10539F461E0812FDF91CF9157
:100310001F910C943602E12FF0E0E858FF4FE49172
:10032000E330F9F048F4E130B9F0E230A1F584B5FA
:10033000806284BDC8BD34C0E730E9F0E83019F10F
:10034000E43049F580918000806280938000D093F2
:100350008B00C0938A0024C084B5806884BDC7BD6B
:100360001FC080918000806880938000D0938900B6
:10037000C093880015C08091B00080688093B00061
:10038000C093B3000DC08091B00080628093B00034
:10039000C093B40005C0C038D1050CF0B5CFAFCFC5
:1003A000DF91CF911F910895833081F028F481303F
:1003B00099F08230A1F008958730A9F08830B9F023
:1003C0008430D1F4809180008F7D03C080918000C3
:1003D0008F7780938000089584B58F7702C084B5AD
:1003E0008F7D84BD08958091B0008F7703C0809188
:1003F000B0008F7D8093B0000895CF93DF9390E09D
:10040000FC01E457FF4F2491FC01E056FF4F84911B
:10041000882349F190E0880F991FFC01E254FF4FB7
:10042000A591B4918C549F4FFC01C591D4919FB775
:10043000611108C0F8948C91209582238C93888157
:1004400082230AC0623051F4F8948C91322F309597
:1004500083238C938881822B888304C0F8948C91A9
:10046000822B8C939FBFDF91CF9108950F931F93A1
:10047000CF93DF931F92CDB7DEB7282F30E0F9017D
:10048000E858FF4F8491F901E457FF4F1491F901A7
:10049000E056FF4F04910023C9F0882321F06983BF
:1004A0000E94D4016981E02FF0E0EE0FFF1FEC54B1
:1004B000FF4FA591B4919FB7F8948C91611103C03F
:1004C0001095812301C0812B8C939FBF0F90DF91EA
:1004D000CF911F910F910895FC01818D228D90E0A5
:1004E000805C9F4F821B91098F7399270895FC01AF
:1004F000918D828D981731F0828DE80FF11D858DD9
:1005000090E008958FEF9FEF0895FC01918D828D0B
:10051000981761F0828DDF01A80FB11D5D968C9157
:10052000928D9F5F9F73928F90E008958FEF9FEF62
:10053000089583E094E0892B49F080E090E0892BD6
:1005400029F00E94030481110C9400000895FC011D
:10055000848DDF01A80FB11DA35ABF4F2C91848D4C
:1005600090E001968F739927848FA689B7892C9381
:10057000A089B1898C9180648C93938D848D98131C
:1005800006C00288F389E02D80818F7D80830895E5
:10059000CF93DF93EC01888D8823C9F0EA89FB892A
:1005A000808185FD05C0A889B9898C9186FD0FC021
:1005B0000FB607FCF5CF808185FFF2CFA889B989F6
:1005C0008C9185FFEDCFCE010E94A702E7CFDF918E
:1005D000CF910895CF92DF92FF920F931F93CF9305
:1005E000DF931F92CDB7DEB76C0181E0D60158963C
:1005F0008C9358975B969C915B975C968C915C97DB
:10060000981307C05096ED91FC915197808185FD1C
:100610002EC0F601038D10E00F5F1F4F0F731127DF
:10062000F02EF601848DF81211C00FB607FCF9CF39
:10063000D6015096ED91FC915197808185FFF1CFC5
:10064000C60169830E94A7026981EBCF838DE80F01
:10065000F11DE35AFF4F6083D6015B960C935B97C5
:100660005296ED91FC915397808180620CC0D60127
:100670005696ED91FC91579760835096ED91FC91C1
:10068000519780818064808381E090E00F90DF91BA
:10069000CF911F910F91FF90DF90CF900895BF925F
:1006A000CF92DF92EF92FF92CF93DF93EC016A013A
:1006B0007B01B22E60E874E88EE190E0A70196011C
:1006C0000E94B404215031094109510956954795BA
:1006D00037952795E889F98982E08083211580E1A3
:1006E000380798F0E889F989108260E472E48FE0B5
:1006F00090E0A70196010E94B404215031094109FC
:1007000051095695479537952795EC85FD8530839A
:10071000EE85FF852083188EEC89FD89B082EA89F9
:10072000FB89808180618083EA89FB898081886080
:100730008083EA89FB89808180688083EA89FB89DC
:1007400080818F7D8083DF91CF91FF90EF90DF904C
:10075000CF90BF9008951F920F920FB60F92112461
:100760002F938F939F93EF93FF93E0914501F09127
:1007700046018081E0914B01F0914C0182FD12C055
:10078000908180914E018F5F8F7320914F0182176E
:1007900051F0E0914E01F0E0EB5CFE4F958F8093BD
:1007A0004E0101C08081FF91EF919F918F912F9118
:1007B0000F900FBE0F901F9018951F920F920FB6BB
:1007C0000F9211242F933F934F935F936F937F93D7
:1007D0008F939F93AF93BF93EF93FF9385E391E044
:1007E0000E94A702FF91EF91BF91AF919F918F91CE
:1007F0007F916F915F914F913F912F910F900FBE1D
:100800000F901F90189585E391E00E946C0221E003
:10081000892B09F420E0822F08951092380110925C
:10082000370188EE93E0A0E0B0E080933901909327
:100830003A01A0933B01B0933C018FE091E090938B
:1008400036018093350185EC90E0909342018093CE
:10085000410184EC90E0909344018093430180EC4B
:1008600090E0909346018093450181EC90E0909355
:1008700048018093470182EC90E090934A01809375
:10088000490186EC90E090934C0180934B011092CB
:100890004E0110924F011092500110925101089593
:1008A00008950E943A010E9450040E948F00C9E9F5
:1008B000D2E00E94A9002097E1F30E949902F9CFAB
:1008C000CF92DF92EF92FF920F931F93CF93DF931C
:1008D0006C017A01EB01E60EF71E00E010E0CE1588
:1008E000DF0561F06991D601ED91FC910190F081F5
:1008F000E02DC6010995080F191FF1CFC801DF913E
:10090000CF911F910F91FF90EF90DF90CF900895BE
:100910006115710581F0DB010D900020E9F7AD0153
:1009200041505109461B570BDC01ED91FC910280AF
:10093000F381E02D099480E090E008956BE171E08F
:100940000C9488040F931F93CF93DF93EC010E94C4
:1009500088048C01CE010E949E04800F911FDF91BC
:10096000CF911F910F910895A1E21A2EAA1BBB1BD4
:10097000FD010DC0AA1FBB1FEE1FFF1FA217B3076B
:10098000E407F50720F0A21BB30BE40BF50B661F81
:10099000771F881F991F1A9469F760957095809545
:1009A00090959B01AC01BD01CF010895EE0FFF1F93
:0C09B0000590F491E02D0994F894FFCF1D
:1009BC00456E20617474656E74650000000000EA79
:1009CC000260046C0285027702C8020D0A006E6197
:0C09DC006E00696E66006F7666002E00EB
:00000001FF
